:020000040800F2
:100000003005002001010008C7150008B5130008DD
:10001000C515000849010008591A00080000000031
:1000200000000000000000000000000009160008A9
:100030004B01000800000000E91500080B1600083D
:100040001B0100081B0100081B0100081B01000820
:100050001B0100081B0100084D01000853010008A6
:10006000590100081B0100081B0100081B010008C2
:100070001B0100081B0100081B0100081B010008F0
:100080001B0100081B0100081B0100081B010008E0
:100090001B0100081B0100081B0100081B010008D0
:1000A0001B0100081B0100081B0100081B010008C0
:1000B000C91600081B010008D51600081B0100081E
:1000C0001B0100081B0100081B010008ED150008BA
:1000D0001B0100084D1A00081B0100081B01000845
:1000E0001B0100081B0100081B010008DFF80CD0F1
:1000F00000F018F800480047791A00083005002081
:100100000648804706480047FEE7FEE7FEE7FEE7B1
:10011000FEE7FEE7FEE7FEE7FEE7FEE781160008E2
:10012000ED000008064C074D06E0E06840F00103D2
:1001300094E8070098471034AC42F6D3FFF7DAFF93
:10014000441B0008641B0008FEE77047012000F014
:1001500025B9022000F022B9042000F01FB90000E8
:1001600010B590F821100024022903D004218163E6
:1001700001243DE001680A6822F00E020A6001686D
:100180000A6822F001020A601A4A0168914201D10C
:10019000012121E0174A1432914201D110211BE0C4
:1001A000144A2832914201D1891515E0114A3C3296
:1001B000914201D189140FE00E4A5032914202D18E
:1001C0004FF4803108E00B4A6432914202D14FF47F
:1001D000801101E04FF08071064A083A5160012118
:1001E00080F82110002180F82010416B01B1884770
:1001F000204610BD0800024070B5044600F0C6F964
:100200000546601C02D004480078044400F0BEF9A2
:10021000401BA042FAD370BD080000202DE9F04138
:10022000002601275A4D5B4C5B4A012809D0022861
:100230007ED102219046104600F09AF900285AD04B
:1002400069E001219046104600F092F978B1022150
:10025000404600F08DF950B101221146284600F0C9
:1002600090F900220221284600F08BF966700121E6
:10027000404600F07DF978B10221404600F078F95F
:1002800050B9677000220121284600F07AF9002257
:100290000221284600F075F90121404600F068F976
:1002A00078B90221404600F063F950B101221146AD
:1002B000284600F066F901220221284600F061F983
:1002C000667001214646404600F052F900285CD194
:1002D0000221304600F04CF9002856D16770002208
:1002E0000121284600F04DF92846BDE8F0410022E2
:1002F000022100F046B90121404600F039F950B919
:1003000000220121284600F03CF901220221284662
:1003100000F037F966700221404600F029F988B9EB
:100320000121404600F024F960B16770002200E02E
:100330002BE00121284600F024F900220221284662
:1003400000F01FF90221404600F012F978B10121B6
:10035000404600F00DF950B901220221284600F074
:1003600010F901221146284600F00BF966700221AF
:100370004546404600F0FCF8002806D001212846FA
:1003800000F0F6F8002800D06770BDE8F0810000AA
:10039000000C01400000002000080140044910B595
:1003A0000A68024202D00860FFF738FF10BD000063
:1003B000140401402DE9F84FDFF890A100220AF162
:1003C000040B144601274FF00F090BF1040E00BF78
:1003D0000B6807FA04F52B40AB4274D1DFF870C10B
:1003E0004E68A6EB0C0866452BD00DDC032E34D0EE
:1003F00005DC36B3012E19D0022E2FD11BE0112EB1
:1004000016D0122E2AD119E0B8F5881F19D006DCB3
:10041000B8F5803F15D0B8F5801F1FD111E0B8F5B1
:10042000001F0ED0B8F5041F18D10AE0CA6815E005
:10043000CA68121D12E0CA6808320FE0CA680C329E
:100440000CE08A682AB1012A4FF0080203D0456106
:1004500004E0042202E0056100E00022FF2B01D845
:10046000064601E000F104064FEA840501D9A5F132
:100470002005D6F800C009FA05F82CEA080C02FAA3
:1004800005F54CEA050CC6F800C04D68ED0057D5DF
:10049000304DAE6946F00106AE61AD6924F0030649
:1004A00005F0010500952C4D06EB050CDCF8085015
:1004B000A6074FEA167809FA08F6B543274EB04268
:1004C00002D1002610E03BE0254EB04201D10126CA
:1004D0000AE0244EB04201D1022605E0224EB0428D
:1004E00001D1032600E0042606FA08F62E43CCF8D4
:1004F00008604D68DAF80060ED03554601D51E43EB
:1005000000E09E432E604D68DBF80060AD035D4661
:1005100001D51E4300E09E432E604D68DEF800606A
:10052000ED02754601D51E4300E09E432E604D68E6
:10053000AD020E4D2E6801D51E4300E09E432E6095
:10054000641C102CFFF444AFBDE8F88F0004014098
:10055000000011100010024000000140000801409E
:10056000000C014000100140001401400C04014047
:100570008068084000D001207047C2684A40C260CD
:1005800070470AB1016170470904FBE701488068C0
:10059000704700000800002002488168027811447A
:1005A0008160704708000020074810B5016841F0DD
:1005B00010010160032000F09DF8002000F006F813
:1005C00000F024F8002010BD0020024070B50D4D51
:1005D00004464FF47A712878B1FBF0F00A490968B3
:1005E000B1FBF0F000F007FC48B9102C07D2002254
:1005F0002146501E00F05EF800206C6070BD0120A6
:1006000070BD00000800002014000020214808B53B
:10061000816941F001018161816901F0010100916D
:10062000C16941F08051C161C06900F08050009003
:10063000032000F05FF8002211466FF00B0000F07D
:1006400039F8002211466FF00A0000F033F800225A
:1006500011466FF0090000F02DF800221146501FDE
:1006600000F028F800221146101F00F023F80022A5
:100670001146901E00F01EF800221146501E00F098
:1006800019F80548416821F0E06141F000714160CE
:1006900008BD0000001002400000014000F01F02F1
:1006A000012191404009800000F1E020C0F80011D4
:1006B00070470000F0B40E4B1B680C46C3F30223D6
:1006C000C3F10705042D00D90425191D072901D2FE
:1006D000002300E0DB1E012606FA05F1491E214039
:1006E00099409E40761E16403143F0BC00F06CBF2E
:1006F0000CED00E0064900F0070208684FF6FF0322
:10070000184040EA0220034A104308607047000086
:100710000CED00E00000FA052DE9F047DFF83C8120
:1007200005460E46D8F8000000F00700B0420CD293
:10073000D8F8001021F007013143C8F80010D8F8AC
:10074000000000F00700B04263D12878444C8007D5
:1007500005D56068A96820F0F0000843606028783B
:10076000C00745D06868012816D02168022816D035
:10077000890700294DDA616821F0030101436160B6
:10078000FFF704FF6968074641F2883001290FD05E
:100790000229814619D027E021688903E9E7890108
:1007A000E7E700BFFFF7F2FEC11B494501D918E09A
:1007B00081466068C0F381000128F3D118E000BFD2
:1007C000FFF7E4FEC11B49450BD86068C0F3810008
:1007D0000228F5D10CE000BFFFF7D8FEC11B494548
:1007E00002D90320BDE8F087606810F00C0FF3D148
:1007F000D8F80010404601F00701B1420BD901685A
:1008000021F0070131430160006800F00700B042A9
:1008100001D00120E6E72878400705D56068E9683F
:1008200020F4E060084360602878000706D560681F
:10083000296920F4605040EAC100606000F03CF893
:100840006168084AC1F30311515CC8400649086059
:100850000020FFF7BBFE0020C4E70000002002409C
:10086000001002402C1B0008140000200148006802
:1008700070470000140000200448054900684968DA
:10088000044AC1F30221515CC840704714000020A3
:10089000001002403C1B00080448054900684968F4
:1008A000044AC1F3C221515CC840704714000020C3
:1008B000001002403C1B000812A185B00FC98DE852
:1008C0000F0014A0144A006804905168134801F006
:1008D0000C03042B10D0082B0ED1C1F38343C903A2
:1008E0001DF803000AD5516804AAC1F34041515CC8
:1008F0000A4A5043B0FBF1F005B07047084948433D
:10090000FAE7000002030405060708090A0B0C0DAC
:100910000E0F1010010200000010024000127A00B9
:1009200000093D002DE9F84F04460078B94DC00795
:1009300048D06868C0F38100012807D06868C0F318
:100940008100022809D16868C00306D528688003A1
:1009500038D5606800286FD034E06068B0F5803F1B
:100960000BD010B1B0F5A02F11D0286820F4803042
:100970002860286820F4802002E0286840F4803055
:100980002860606888B1FFF701FE064609E0286824
:1009900040F480202860F0E7FFF7F8FD801B642812
:1009A00075D828688003F7D50CE0FFF7EFFD064601
:1009B00005E000BFFFF7EAFD801B6428F0D8286837
:1009C0008003F7D42078944E80074FF001094FF050
:1009D00000083BD5686810F00C0F07D06868C0F3BA
:1009E0008100022809D16868C00306D428688007FE
:1009F00014D5206901281FD110E02069B0B1C6F8D4
:100A00000090FFF7C3FD074605E000BFFFF7BEFDFE
:100A1000C01B0228C4D828688007F7D528686169F8
:100A200020F0F80040EAC10028600FE0C6F800801E
:100A3000FFF7ACFD074606E0E9E000BFFFF7A6FDC3
:100A4000C01B022823D828688007F7D42078000725
:100A50002CD57248A169D9B1C0F80090FFF796FD76
:100A6000074604E0FFF792FDC01B02280FD8686A12
:100A70008007F7D56A484FF4FA510068B0FBF1F0EF
:100A8000009000BF0098411E0091FAD20EE080E075
:100A9000C0F80080FFF77AFD074604E0FFF776FD17
:100AA000C01B022875D8686A8007F7D420784007F1
:100AB00060D5E8690027C00008D4E86940F080509C
:100AC000E861E869012700F080500090554801680E
:100AD000C90513D40168834641F480710160FFF7B2
:100AE00055FD824606E000BFFFF750FDA0EB0A006F
:100AF00064284ED8DBF80000C005F5D5E068012871
:100B00000AD008B1052813D0286A20F00100286215
:100B1000286A20F0040002E0286A40F00100286200
:100B2000E06841F2883B98B1FFF730FD82460BE068
:100B3000286A40F004002862EEE700BFFFF726FDB8
:100B4000A0EB0A0159455AD8286A8007F6D50CE06F
:100B5000FFF71CFD824605E0FFF718FDA0EB0A0138
:100B600059454CD8286A8007F6D41FB1E86920F0AF
:100B70008050E861E06988B36968C1F381010229A6
:100B800045D00228C6F8608004D0FFF7FFFC044679
:100B900038E034E0FFF7FAFC074604E0FFF7F6FC24
:100BA000C01B02282BD828688001F7D4206AB0F532
:100BB000803F05D16868A16820F400300843686070
:100BC000D4E908010843696821F474110843686096
:100BD000C6F86090FFF7DAFC044606E015E000BFB7
:100BE000FFF7D4FC001B022809D828688001F7D53C
:100BF0000BE000BFFFF7CAFC001B022802D903204C
:100C0000BDE8F88F28688001F4D40020F8E70120BF
:100C1000F6E7000000100240000042428004424219
:100C200014000020007000407047000038B50446F2
:100C30000068426881684B0605D4CB0703D0530691
:100C400001D5216C04E08B0707D5130605D5616C2F
:100C500001B02046BDE83040084711F0600F3FD09A
:100C600093063DD54B060AD594F85130032B34D06A
:100C7000636D43F004036365C3688368009389066A
:100C800009D5616D41F001016165816800910168DC
:100C900021F040010160606D002821D0206841688A
:100CA00021F0E0014160012084F85100900718D044
:100CB0002068416821F0030141600C4DE06C18B1DF
:100CC0004563E06CFFF74CFAA06C002808D0456340
:100CD000A06CBDE83840FFF743BAC1688068009057
:100CE00038BD2046FFF7A0FF38BD0000F915000809
:100CF00070B5040005D00025A56294F8510010B12C
:100D000004E0012070BD204600F034F8022084F891
:100D100051002068016821F040010160D4E901011F
:100D20000843D4E903121143084361690843218B46
:100D300001F400710843E1690843216A0843A16A8C
:100D4000084321680860A069042101EA1040616A33
:100D50000843216848602168E06A08612068C16929
:100D600021F40061C1616565012084F85100002013
:100D700070BD000010B50068154986B0884224D1C6
:100D80001448816941F4805181618069124C00F4FA
:100D900080500490A0200090022001900320039036
:100DA00069462046FFF706FB00214020CDE90001FF
:100DB000029169462046FFF7FDFA002211462320E2
:100DC000FFF778FC2320FFF769FC06B010BD000098
:100DD0000030014000100240000801404FF0E021C7
:100DE0000428086903D020F004000861704740F02F
:100DF0000400FAE7704710B5401EB0F1807F01D3C0
:100E0000012010BD4FF0E02460610F21601700F059
:100E1000DBFB0020A06107202061002010BD10B581
:100E2000FFF7E8FF10BD7047704730B590F83C20E1
:100E3000012A20D0012280F83C20022380F83D3096
:100E400003685C6824F070045C6003685C680D688B
:100E50002C435C6003689C6824F080049C600368F9
:100E60009C6849680C439C6080F83D20002180F814
:100E70003C10084630BD022030BD10B5040003D040
:100E800094F83D0010B107E0012010BD002084F867
:100E90003C00204600F00CF8022084F83D00211DA3
:100EA000206800F01DFC012084F83D00002010BDEA
:100EB00000B501681D4885B0B1F1804F14D01C4ABF
:100EC00091420FD1C16941F00401C161C0690022A2
:100ED00000F00400049011461E20FFF7EBFB1E20DB
:100EE000FFF7DCFB05B000BDC16941F00101C16144
:100EF000C069694600F0010004904FF40040009082
:100F00000020019002900B48FFF754FA0A4841680C
:100F100021F4407141F0E06141F4807141600022B0
:100F200011461C20FFF7C6FB1C20D9E70010024029
:100F30000008004000080140000001400168CA6844
:100F400042F00102CA600068016841F001010160DD
:100F50000020704770B5044690F83C00012817D077
:100F6000012584F83C50022084F83D002068826806
:100F700022F0770222F47F4282600868502837D03E
:100F80000DDC202859D005DC88B3102841D151E070
:100F9000022070BD302853D040283AD13FE060286D
:100FA0002ED070280BD0B0F5805F03D0B0F5005F75
:100FB0002FD110E02068816821F0070115E0CB688F
:100FC000D1E90121206800F0C1FB2168886840F068
:100FD000770088601DE0CB68D1E90121206800F02E
:100FE000B5FB2068816841F48041816011E01EE01A
:100FF000CA684968206800F0BBFB5021206806E001
:10100000CA684968206800F0C4FB6021206800F0CD
:10101000A7FB84F83D50002084F83C0070BDCA68EE
:101020004968206800F0A4FB40212068EFE7002118
:101030002068ECE710212068E9E720212068E6E736
:1010400030212068E3E7704770B504460068016905
:101050004FF00005C943890715D4C168C943890702
:1010600011D4E91E01610120207720688069800782
:10107000204602D0FFF7E7FF04E000F098F8204692
:1010800000F096F8257720680169C943490717D40D
:10109000C168C943490713D46FF0040101610220FC
:1010A00020772068806910F4407F204602D0FFF747
:1010B000CAFF04E000F07BF8204600F079F82577BD
:1010C00020680169C943090716D4C168C9430907E3
:1010D00012D46FF008010161042020772068C069F4
:1010E0008007204602D0FFF7AEFF04E000F05FF873
:1010F000204600F05DF8257720680169C943C906DC
:1011000017D4C168C943C90613D46FF01001016137
:10111000082020772068C06910F4407F204602D064
:10112000FFF791FF04E000F042F8204600F040F89D
:10113000257720680169C943C90708D1C168C94337
:10114000C90704D1891E0161204600F033F82068E8
:101150000169C943090609D4C168C943090605D410
:101160006FF0800101612046FFF75DFE2068016994
:10117000C943490609D4C168C943490605D46FF07B
:1011800040010161204600F023F820680169C9434D
:1011900089060BD4C168C943890607D46FF02001C2
:1011A00001612046BDE87040FFF73EBE70BD70474C
:1011B0007047000000680449884203D103498888C9
:1011C000401C88807047000000080040000000209C
:1011D0007047704770B5026804461068D16853695B
:1011E00010F00F0F50D003F0010501F49076354355
:1011F0005DD0C20705D0CA0503D5E26B42F00102FB
:10120000E263420705D5DA0703D0E26B42F002023F
:10121000E263820705D5DA0703D0E26B42F00402ED
:10122000E263020705D5DA0703D0E26B42F0080259
:10123000E263E26B002A33D0800604D5880602D52B
:10124000204600F0CEFA20684069E16BC0F38010C0
:10125000090700D428B3204600F0B5FA2068416998
:1012600049061AD5416921F040014161606BA0B186
:101270001B494163606BFEF773FF002810D0606B61
:10128000416BBDE870400847830610D58B060ED52C
:101290002046BDE8704000F0A4BA2046FFF799FF51
:1012A00070BD2046FFF795FF0020E06370BD030688
:1012B00006D50B0604D52046BDE8704000F094BB6F
:1012C0004006F3D54806F1D5D168204621F040010B
:1012D000D160202184F8391000F06BF870BD000057
:1012E000B717000870B5040004D094F83900002541
:1012F00010B106E0012070BD84F83850204600F09F
:1013000023F8242084F839002068C16821F40051B2
:10131000C160204600F0B0FA2068016921F49041D4
:1013200001612068416921F02A0141612068C1689A
:1013300041F40051C160E563202084F8390084F84D
:101340003A00002070BD000010B50068154986B055
:10135000884225D11448816941F4804181618069C6
:10136000124C00F4804004904FF400700090022072
:1013700001900320039069462046FFF71BF80021E7
:101380002015CDE90001029169462046FFF712F8C9
:10139000002211462520FFF78DF92520FFF77EF961
:1013A00006B010BD003801400010024000080140A6
:1013B00070477047FEE700002DE9F047414886B0CE
:1013C000816941F010018161816901F0100104918E
:1013D000816941F020018161816901F0200104915E
:1013E000816941F004018161816901F00401049186
:1013F000816941F0080181618069DFF8CC8000F0EB
:1014000008004FF400540490002221464046FFF7A4
:10141000B8F8DFF8B890002210214846FFF7B1F87D
:10142000DFF8ACA040F2FB17002239465046FFF728
:10143000A8F800940225012400260395CDE9014671
:1014400069464046FEF7B6FF4FF44040CDE900063E
:10145000694640460296FEF7ADFF072000901D4802
:10146000CDE9010469464846FEF7A4FF1020CDE906
:10147000000469464846CDE90245FEF79BFF009708
:10148000CDE90145694650460395FEF793FF0022DA
:1014900011460620FFF70EF90620FFF7FFF800229D
:1014A00011460720FFF706F90720FFF7F7F800229B
:1014B00011460820FFF7FEF80820FFF7EFF806B006
:1014C000BDE8F08700100240001001400008014014
:1014D000000C0140000031100E4810B50C490160AD
:1014E0004FF482714160002181600122C160C0E936
:1014F0000412520282613822C0E9072141628162EE
:101500000A21C162FFF7F4FB002800D0FEE710BDFE
:10151000003001401800002010B5134886B04FF08D
:1015200080410024C0E900146421C0E90241046143
:101530008461FFF7A2FC00B1FEE74FF40050CDE953
:1015400000040294694608480394FFF703FD00B1C4
:10155000FEE7049404A904480594FFF766FC0028FC
:1015600000D0FEE706B010BD7000002010B5144892
:1015700086B01249016048F6A0410024C0E9011478
:101580004FF4FA61C0E9031480218161FFF775FC13
:1015900000B1FEE74FF48050009069460848FFF71D
:1015A000D9FC00B1FEE7049404A905480594FFF7AF
:1015B0003CFC002800D0FEE706B010BD000800404B
:1015C000B0000020FEE770470907090E002806DA80
:1015D00000F00F0000F1E02080F8141D704700F1CA
:1015E000E02080F800147047704700000148FFF7C2
:1015F0001DBB00001800002010B5406A0021C18703
:10160000C186FFF711FB10BD704710B5FEF7C4FF90
:10161000BDE81040FFF703BC30B58FB001210804CE
:10162000CDE900100024029402250491CDE9075071
:101630004FF4E01009906846FFF774F900B1FEE737
:101640000F20CDE90A054FF48060CDE90C400E90E3
:1016500002210AA8FFF760F800B1FEE7FFF706F9DC
:101660004FF47A71B0FBF1F0FFF7C5FB0420FFF7F0
:10167000B5FB00221146501EFFF71CF80FB030BD1D
:101680000D48016841F00101016041680B4A1140B9
:10169000416001680A4A11400160016821F480211B
:1016A0000160416821F4FE0141604FF41F01816037
:1016B0000449C00308607047001002400000FFF8B2
:1016C000FFFFF6FE08ED00E00148FFF7BDBC00009B
:1016D000700000200148FFF7B7BC0000B0000020F8
:1016E000F0B50268164B174C174D4FF080479842E3
:1016F00005D0B84203D0A04201D0A84203D122F0C5
:1017000070064A683243984205D0B84203D0A042DE
:1017100001D0A84203D122F44074CA68224322F0C7
:1017200080044A69224302608A68C2620A6882624F
:10173000984201D10969016301214161F0BD0000B6
:10174000002C0140000400400008004010B58468EF
:1017500042EA032224F47F440A432243826010BDFC
:10176000826822F070020A4342F0070181607047EC
:1017700010B5036A046A24F001040462846924F049
:10178000F00444EA021423F00A020A43846102626C
:1017900010BD10B5036A23F0100303628369046A65
:1017A00023F4704343EA023224F0A00343EA011118
:1017B0008261016210BD10B5406A0021C185C184FB
:1017C000FFF707FD10BD0168CA6822F49072CA6075
:1017D00001684A6922F001024A61202180F83A102A
:1017E000704710B590F83A10222901D0022010BDA0
:1017F0008168B1F5805F11D00169002901681FD0AF
:10180000496801F07F03816A4A1C82620B70C18DB6
:10181000491E0904090CC18518D02BE00269816AB0
:10182000002A0268526805D0D2B20A80816A491C37
:101830008162ECE7C2F308020A80816A891CF7E73B
:101840004A68816A4B1C83620A70E0E70168CA68D3
:1018500022F02002CA600168CA6822F48072CA605D
:1018600001684A6922F001024A61202180F83A1099
:10187000FFF79EFD002010BD2DE9F04104460068F1
:101880000169E26821F44051114301612169A068B6
:101890000843616908432168CA6841F20C639A43AE
:1018A0000243CA6020684169A26921F44071114372
:1018B00041614C4920686425322688423CD1FEF7BC
:1018C000EBFF00EBC00101EB001061688900B0FB89
:1018D000F1F7FEF7E1FF00EBC00101EB00106168DA
:1018E000B0468900B0FBF1F0B0FBF5F06FF01801E5
:1018F000484307EB800106EB0110B0FBF5F000F068
:10190000F006FEF7C9FF00EBC00101EB00106168B3
:101910008900B0FBF1F0B0FBF5F006EB0016FEF726
:10192000BBFF00EBC00101EB001061688900B0FB58
:10193000F1F7FEF7B1FF3BE0FEF79EFF00EBC001C1
:1019400001EB001061688900B0FBF1F7FEF794FF2E
:1019500000EBC00101EB00106168B0468900B0FBEC
:10196000F1F0B0FBF5F06FF01801484307EB800190
:1019700006EB0110B0FBF5F000F0F006FEF77CFF7F
:1019800000EBC00101EB001061688900B0FBF1F0D1
:10199000B0FBF5F006EB0016FEF76EFF00EBC001A2
:1019A00001EB001061688900B0FBF1F7FEF764FFFE
:1019B00000EBC00101EB001061688900B0FBF1F0A1
:1019C000B0FBF5F06FF01801484307EB800108EB1E
:1019D0000110B0FBF5F0216800F00F003044886082
:1019E000BDE8F0810038014090F83910212901D07C
:1019F000022070478168B1F5805F016A0BD04A1CF4
:101A00000262026809785160C18C491E0904090C00
:101A1000C1840ED017E009880268C1F30801516043
:101A200001690029016A02D0491C0162ECE7891CA6
:101A3000FBE70168CA6822F08002CA600068C168DA
:101A400041F04001C1600020704700000148FFF7ED
:101A5000C1BB0000F0000020FEE702E008C8121F32
:101A600008C1002AFAD170477047002001E001C187
:101A7000121F002AFBD17047FEF796FDFFF7CCFD41
:101A8000FFF79AFCFFF728FD244823490C22016048
:101A90004FF4E131416000218160C160C0E904126E
:101AA0008161C161FFF71EFC00B1FEE7FFF75EFD3B
:101AB000FFF732FD19484038FFF740FA184C2078FC
:101AC000E8B1A078D8B9174D012220212846FEF7A9
:101AD00058FD012211462846FEF753FD0122082138
:101AE0002846FEF74EFD012210212846FEF749FD4B
:101AF000002240212846FEF744FD0120A0700A4D37
:101B00004FF400544FF47A7621462846FEF735FD0F
:101B10003046FEF771FBF7E700380140F000002087
:101B200000000020000C01400010014000000000F7
:101B3000000000000102030406070809000000007D
:101B400001020304641B00080000002018000000CC
:101B50005A1A00087C1B0008180000201805000015
:101B60006A1A0008010000000000000001000000E7
:0C1B7000100000000000000000A24A0469
:04000005080000ED02
:00000001FF
