:020000040800F2
:10000000F805002001010008CF150008BF13000803
:10001000CD15000885010008291B0008000000001C
:1000200000000000000000000000000011160008A1
:100030008701000800000000F115000813160008F1
:100040001B0100081B0100081B0100081B01000820
:100050001B0100081B010008890100088F0100082E
:10006000950100081B0100081B0100081B01000886
:100070001B0100081B0100081B0100081B010008F0
:100080001B0100081B0100081B0100081B010008E0
:100090001B0100081B0100081B0100081B010008D0
:1000A0001B0100081B0100081B0100081B010008C0
:1000B000D11600081B010008DD1600081B0100080E
:1000C0001B0100081B0100081B010008F5150008B2
:1000D0001B0100081D1B00081B0100081B01000874
:1000E0001B0100081B0100081B010008DFF80CD0F1
:1000F00000F036F800480047151D0008F8050020FC
:100100000648804706480047FEE7FEE7FEE7FEE7B1
:10011000FEE7FEE7FEE7FEE7FEE7FEE789160008DA
:10012000ED000008421C10F8011B0029FBD1801AC9
:10013000704730B50B46014600202022012409E01B
:1001400021FA02F59D4205D303FA02F5491B04FA90
:1001500002F52844151EA2F10102F1DC30BD0000B9
:10016000064C074D06E0E06840F0010394E8070004
:1001700098471034AC42F6D3FFF7BCFF5420000878
:1001800074200008FEE77047012000F0EDB802205F
:1001900000F0EAB8042000F0E7B8000010B590F8CD
:1001A00021100024022903D00421816301243DE0B1
:1001B00001680A6822F00E020A6001680A6822F0EB
:1001C00001020A601A4A0168914201D1012121E02D
:1001D000174A1432914201D110211BE0144A2832EF
:1001E000914201D1891515E0114A3C32914201D169
:1001F00089140FE00E4A5032914202D14FF48031FF
:1002000008E00B4A6432914202D14FF4801101E0C0
:100210004FF08071064A083A5160012180F82110A0
:10022000002180F82010416B01B18847204610BDA5
:100230000800024070B5044600F08EF90546601CC7
:1002400002D004480078044400F086F9401BA04224
:10025000FAD370BD080000202DE9F04100270126E7
:100260003E4C3F4D01280CD002283DD0042839D106
:100270000421284600F062F901003A4866D00022C5
:1002800065E00121284600F059F938B102212846DD
:1002900000F054F910B10420A07027700121284605
:1002A00000F04CF928B10221284600F047F900B9C6
:1002B00026700121284600F041F930B90221284674
:1002C00000F03CF908B1A67027700121284600F023
:1002D00035F9002806D10221284600F02FF9002820
:1002E00000D12670BDE8F0810221284600F026F9F1
:1002F00038B90121284600F021F910B90220A07078
:1003000027700221284600F019F928B90121284652
:1003100000F014F900B126700221284600F00EF911
:1003200038B10121284600F009F910B90320A07066
:1003300027700221284600F001F90028D2D00121BF
:10034000284600F0FBF80028CBD1CBE70122402162
:1003500000F0FDF8BDE8F04101F032BA00000020E5
:1003600000080140000C0140044910B50A6802422F
:1003700002D00860FFF770FF10BD000014040140B8
:100380002DE9F84FDFF890A100220AF1040B144682
:1003900001274FF00F090BF1040E00BF0B6807FA9D
:1003A00004F52B40AB4274D1DFF870C14E68A6EB68
:1003B0000C0866452BD00DDC032E34D005DC36B39B
:1003C000012E19D0022E2FD11BE0112E16D0122E85
:1003D0002AD119E0B8F5881F19D006DCB8F5803F9E
:1003E00015D0B8F5801F1FD111E0B8F5001F0ED051
:1003F000B8F5041F18D10AE0CA6815E0CA68121DD2
:1004000012E0CA6808320FE0CA680C320CE08A6851
:100410002AB1012A4FF0080203D0456104E004220A
:1004200002E0056100E00022FF2B01D8064601E052
:1004300000F104064FEA840501D9A5F12005D6F89C
:1004400000C009FA05F82CEA080C02FA05F54CEA96
:10045000050CC6F800C04D68ED0057D5304DAE69AB
:1004600046F00106AE61AD6924F0030605F0010512
:1004700000952C4D06EB050CDCF80850A6074FEA5A
:10048000167809FA08F6B543274EB04202D1002685
:1004900010E03BE0254EB04201D101260AE0244E97
:1004A000B04201D1022605E0224EB04201D103261E
:1004B00000E0042606FA08F62E43CCF808604D68E2
:1004C000DAF80060ED03554601D51E4300E09E4377
:1004D0002E604D68DBF80060AD035D4601D51E431C
:1004E00000E09E432E604D68DEF80060ED02754628
:1004F00001D51E4300E09E432E604D68AD020E4DB7
:100500002E6801D51E4300E09E432E60641C102C13
:10051000FFF444AFBDE8F88F000401400000111063
:10052000001002400000014000080140000C0140A2
:1005300000100140001401400C0401408068084094
:1005400000D001207047C2684A40C26070470AB1BB
:10055000016170470904FBE70148806870470000AB
:1005600008000020024881680278114481607047C9
:1005700008000020074810B5016841F01001016033
:10058000032000F09DF8002000F006F800F024F8A9
:10059000002010BD0020024070B50D4D04464FF400
:1005A0007A712878B1FBF0F00A490968B1FBF0F0E4
:1005B00000F007FC48B9102C07D200222146501E3B
:1005C00000F05EF800206C6070BD012070BD00007E
:1005D0000800002014000020214808B5816941F07E
:1005E00001018161816901F001010091C16941F05E
:1005F0008051C161C06900F080500090032000F07C
:100600005FF8002211466FF00B0000F039F800226D
:1006100011466FF00A0000F033F8002211466FF027
:10062000090000F02DF800221146501F00F028F8B4
:1006300000221146101F00F023F800221146901EE0
:1006400000F01EF800221146501E00F019F805486F
:10065000416821F0E06141F00071416008BD000097
:10066000001002400000014000F01F0201219140F3
:100670004009800000F1E020C0F800117047000040
:10068000F0B40E4B1B680C46C3F30223C3F10705FD
:10069000042D00D90425191D072901D2002300E0EB
:1006A000DB1E012606FA05F1491E214099409E40B5
:1006B000761E16403143F0BC00F08ABF0CED00E01E
:1006C000064900F0070208684FF6FF03184040EAA9
:1006D0000220034A10430860704700000CED00E060
:1006E0000000FA052DE9F047DFF83C8105460E468B
:1006F000D8F8000000F00700B0420CD2D8F8001083
:1007000021F007013143C8F80010D8F8000000F0CC
:100710000700B04263D12878444C800705D5606853
:10072000A96820F0F000084360602878C00745D031
:100730006868012816D02168022816D08907002988
:100740004DDA616821F0030101436160FFF704FFA6
:100750006968074641F2883001290FD00229814695
:1007600019D027E021688903E9E78901E7E700BF9D
:10077000FFF7F2FEC11B494501D918E081466068C8
:10078000C0F381000128F3D118E000BFFFF7E4FEB9
:10079000C11B49450BD86068C0F381000228F5D120
:1007A0000CE000BFFFF7D8FEC11B494502D903206A
:1007B000BDE8F087606810F00C0FF3D1D8F8001096
:1007C000404601F00701B1420BD9016821F0070151
:1007D00031430160006800F00700B04201D0012001
:1007E000E6E72878400705D56068E96820F4E0600E
:1007F000084360602878000706D56068296920F4FE
:10080000605040EAC100606000F03CF86168084A4E
:10081000C1F30311515CC840064908600020FFF78E
:10082000BBFE0020C4E70000002002400010024090
:10083000C41F000814000020014800687047000031
:10084000140000200448054900684968044AC1F3BF
:100850000221515CC8407047140000200010024083
:10086000D41F00080448054900684968044AC1F3D8
:10087000C221515CC84070471400002000100240A3
:10088000D41F000812A185B00FC98DE80F0014A075
:10089000144A006804905168134801F00C03042BBB
:1008A00010D0082B0ED1C1F38343C9031DF80300F8
:1008B0000AD5516804AAC1F34041515C0A4A504329
:1008C000B0FBF1F005B0704708494843FAE7000073
:1008D00002030405060708090A0B0C0D0E0F101081
:1008E000010200000010024000127A0000093D00E1
:1008F0002DE9F84F04460078B94DC00748D0686824
:10090000C0F38100012807D06868C0F38100022885
:1009100009D16868C00306D52868800338D56068A7
:1009200000286FD034E06068B0F5803F0BD010B184
:10093000B0F5A02F11D0286820F4803028602868F6
:1009400020F4802002E0286840F48030286060684D
:1009500088B1FFF701FE064609E0286840F48020D0
:100960002860F0E7FFF7F8FD801B642875D8286839
:100970008003F7D50CE0FFF7EFFD064605E000BF6A
:10098000FFF7EAFD801B6428F0D828688003F7D4BD
:100990002078944E80074FF001094FF000083BD5B6
:1009A000686810F00C0F07D06868C0F38100022857
:1009B00009D16868C00306D42868800714D5206967
:1009C00001281FD110E02069B0B1C6F80090FFF7F0
:1009D000C3FD074605E000BFFFF7BEFDC01B0228B0
:1009E000C4D828688007F7D52868616920F0F80026
:1009F00040EAC10028600FE0C6F80080FFF7ACFDB8
:100A0000074606E0E9E000BFFFF7A6FDC01B02288D
:100A100023D828688007F7D4207800072CD572489F
:100A2000A169D9B1C0F80090FFF796FD074604E030
:100A3000FFF792FDC01B02280FD8686A8007F7D520
:100A40006A484FF4FA510068B0FBF1F0009000BF23
:100A50000098411E0091FAD20EE080E0C0F80080BC
:100A6000FFF77AFD074604E0FFF776FDC01B02287A
:100A700075D8686A8007F7D42078400760D5E869A0
:100A80000027C00008D4E86940F08050E861E869B8
:100A9000012700F08050009055480168C90513D423
:100AA0000168834641F480710160FFF755FD82467D
:100AB00006E000BFFFF750FDA0EB0A0064284ED807
:100AC000DBF80000C005F5D5E06801280AD008B1C0
:100AD000052813D0286A20F001002862286A20F037
:100AE000040002E0286A40F001002862E06841F258
:100AF000883B98B1FFF730FD82460BE0286A40F052
:100B000004002862EEE700BFFFF726FDA0EB0A0114
:100B100059455AD8286A8007F6D50CE0FFF71CFD26
:100B2000824605E0FFF718FDA0EB0A0159454CD8B5
:100B3000286A8007F6D41FB1E86920F08050E86188
:100B4000E06988B36968C1F38101022945D00228B0
:100B5000C6F8608004D0FFF7FFFC044638E034E0BC
:100B6000FFF7FAFC074604E0FFF7F6FCC01B02287B
:100B70002BD828688001F7D4206AB0F5803F05D1D2
:100B80006868A16820F4003008436860D4E908016F
:100B90000843696821F4741108436860C6F86090DE
:100BA000FFF7DAFC044606E015E000BFFFF7D4FCCF
:100BB000001B022809D828688001F7D50BE000BF88
:100BC000FFF7CAFC001B022802D90320BDE8F88FFA
:100BD00028688001F4D40020F8E70120F6E700003F
:100BE00000100240000042428004424214000020F3
:100BF000007000407047000038B504460068426845
:100C000081684B0605D4CB0703D0530601D5216C70
:100C100004E08B0707D5130605D5616C01B02046AB
:100C2000BDE83040084711F0600F3FD093063DD536
:100C30004B060AD594F85130032B34D0636D43F042
:100C400004036365C36883680093890609D5616DF1
:100C500041F00101616581680091016821F0400166
:100C60000160606D002821D02068416821F0E0011A
:100C70004160012084F85100900718D02068416835
:100C800021F0030141600C4DE06C18B14563E06C4C
:100C9000FFF784FAA06C002808D04563A06CBDE87B
:100CA0003840FFF77BBAC1688068009038BD2046A5
:100CB000FFF7A0FF38BD00000116000870B5040062
:100CC00005D00025A56294F8510010B104E0012080
:100CD00070BD204600F034F8022084F851002068EE
:100CE000016821F040010160D4E901010843D4E921
:100CF00003121143084361690843218B01F4007119
:100D00000843E1690843216A0843A16A084321684E
:100D10000860A069042101EA1040616A0843216863
:100D200048602168E06A08612068C16921F40061B7
:100D3000C1616565012084F85100002070BD00008C
:100D400010B50068154986B0884224D114488169DD
:100D500041F4805181618069124C00F4805004900C
:100D6000A0200090022001900320039069462046B5
:100D7000FFF706FB00214020CDE900010291694602
:100D80002046FFF7FDFA002211462320FFF778FCEA
:100D90002320FFF769FC06B010BD000000300140C1
:100DA00000100240000801404FF0E02104280869CB
:100DB00003D020F004000861704740F00400FAE717
:100DC000704710B5401EB0F1807F01D3012010BDE7
:100DD0004FF0E02460610F21601700F0F9FB002064
:100DE000A06107202061002010BD10B5FFF7E8FFCB
:100DF00010BD7047704730B590F83C20012A20D0D4
:100E0000012280F83C20022380F83D3003685C68B2
:100E100024F070045C6003685C680D682C435C60BF
:100E200003689C6824F080049C6003689C6849689F
:100E30000C439C6080F83D20002180F83C1008465F
:100E400030BD022030BD10B5040003D094F83D0041
:100E500010B107E0012010BD002084F83C002046BE
:100E600000F00CF8022084F83D00211D206800F0FD
:100E70003BFC012084F83D00002010BD00B5016856
:100E80001D4885B0B1F1804F14D01C4A91420FD15A
:100E9000C16941F00401C161C069002200F0040091
:100EA000049011461E20FFF7EBFB1E20FFF7DCFB32
:100EB00005B000BDC16941F00101C161C069694669
:100EC00000F0010004904FF40040009000200190D9
:100ED00002900B48FFF754FA0A48416821F4407128
:100EE00041F0E06141F480714160002211461C2014
:100EF000FFF7C6FB1C20D9E70010024000080040A5
:100F000000080140000001400168CA6842F0010287
:100F1000CA600068016841F001010160002070476B
:100F200070B5044690F83C00012817D0012584F8DC
:100F30003C50022084F83D002068826822F077024D
:100F400022F47F4282600868502837D00DDC2028C8
:100F500059D005DC88B3102841D151E0022070BD82
:100F6000302853D040283AD13FE060282ED0702856
:100F70000BD0B0F5805F03D0B0F5005F2FD110E04B
:100F80002068816821F0070115E0CB68D1E90121D3
:100F9000206800F0DFFB2168886840F077008860F7
:100FA0001DE0CB68D1E90121206800F0D3FB206867
:100FB000816841F48041816011E01EE0CA6849689F
:100FC000206800F0D9FB5021206806E0CA68496813
:100FD000206800F0E2FB6021206800F0C5FB84F887
:100FE0003D50002084F83C0070BDCA684968206804
:100FF00000F0C2FB40212068EFE700212068ECE709
:1010000010212068E9E720212068E6E730212068E8
:10101000E3E7704770B50446006801694FF00005CA
:10102000C943890715D4C168C943890711D4E91E8A
:10103000016101202077206880698007204602D066
:10104000FFF7E7FF04E000F098F8204600F096F87C
:10105000257720680169C943490717D4C168C94386
:10106000490713D46FF00401016102202077206842
:10107000806910F4407F204602D0FFF7CAFF04E0E9
:1010800000F07BF8204600F079F8257720680169A8
:10109000C943090716D4C168C943090712D46FF0C0
:1010A00008010161042020772068C069800720467C
:1010B00002D0FFF7AEFF04E000F05FF8204600F03A
:1010C0005DF8257720680169C943C90617D4C1684E
:1010D000C943C90613D46FF01001016108202077BD
:1010E0002068C06910F4407F204602D0FFF791FFCE
:1010F00004E000F042F8204600F040F82577206830
:101100000169C943C90708D1C168C943C90704D1E6
:10111000891E0161204600F033F820680169C94347
:10112000090609D4C168C943090605D46FF08001D6
:1011300001612046FFF75DFE20680169C943490649
:1011400009D4C168C943490605D46FF04001016163
:10115000204600F023F820680169C94389060BD4B2
:10116000C168C943890607D46FF020010161204698
:10117000BDE87040FFF73EBE70BD7047704700008D
:1011800000680449884203D10349C888401CC880CC
:1011900070470000000800400000002070477047C2
:1011A00070B5026804461068D168536910F00F0FDB
:1011B00050D003F0010501F4907635435DD0C207AD
:1011C00005D0CA0503D5E26B42F00102E263420793
:1011D00005D5DA0703D0E26B42F00202E263820730
:1011E00005D5DA0703D0E26B42F00402E26302079E
:1011F00005D5DA0703D0E26B42F00802E263E26B46
:10120000002A33D0800604D5880602D5204600F097
:101210004FFB20684069E16BC0F38010090700D4E0
:1012200028B3204600F036FB2068416949061AD5EC
:10123000416921F040014161606BA0B11B494163EC
:10124000606BFEF7ABFF002810D0606B416BBDE810
:1012500070400847830610D58B060ED52046BDE8A2
:10126000704000F025BB2046FFF799FF70BD204677
:10127000FFF795FF0020E06370BD030606D50B065F
:1012800004D52046BDE8704000F016BC4006F3D5FA
:101290004806F1D5D168204621F04001D1602021D7
:1012A00084F8391000F08AF870BD00008518000835
:1012B00070B5040004D094F83900002510B106E0A0
:1012C000012070BD84F83850204600F023F8242017
:1012D00084F839002068C16821F40051C1602046BB
:1012E00000F032FB2068016921F49041016120681F
:1012F000416921F02A0141612068C16841F400512F
:10130000C160E563202084F8390084F83A000020A9
:1013100070BD000010B50068154986B0884225D11F
:101320001448816941F4804181618069124C00F464
:10133000804004904FF40070009002200190032040
:10134000039069462046FFF71BF800212015CDE9E0
:101350000001029169462046FFF712F8002211466B
:101360002520FFF78DF92520FFF77EF906B010BD87
:10137000003801400010024000080140704790F81A
:101380003930202B18D1A9B1A2B190F83830012BF7
:1013900012D001628284C2840021C163212280F8BC
:1013A000392080F838100068C16841F08001C160C0
:1013B0000020704701207047022070477047FEE709
:1013C0002DE9F047414886B0816941F01001816103
:1013D000816901F010010491816941F0200181616E
:1013E000816901F020010491816941F0040181616A
:1013F000816901F004010491816941F00801816172
:101400008069DFF8CC8000F008004FF400540490AD
:10141000002221464046FFF79AF8DFF8B8900022F4
:1014200010214846FFF793F8DFF8ACA040F2FB1715
:10143000002239465046FFF78AF80094022501241D
:1014400000260395CDE9014669464046FEF798FF20
:101450004FF44040CDE90006694640460296FEF74B
:101460008FFF072000901D48CDE9010469464846DA
:10147000FEF786FF1020CDE9000469464846CDE915
:101480000245FEF77DFF0097CDE9014569465046CC
:101490000395FEF775FF002211460620FFF7F0F8CE
:1014A0000620FFF7E1F8002211460720FFF7E8F8D1
:1014B0000720FFF7D9F8002211460820FFF7E0F8CF
:1014C0000820FFF7D1F806B0BDE8F0870010024011
:1014D0000010014000080140000C014000003110E4
:1014E0000E4810B50C4901604FF482714160002133
:1014F00081600122C160C0E9041252028261382277
:10150000C0E90721416281620A21C162FFF7D6FB6F
:10151000002800D0FEE710BD003001401800002078
:1015200010B5134886B04FF080410024C0E9001484
:101530006421C0E9024104618461FFF784FC00B1C9
:10154000FEE74FF40050CDE90004029469460848D4
:101550000394FFF7E5FC00B1FEE7049404A90448F6
:101560000594FFF748FC002800D0FEE706B010BD48
:101570007000002010B5144886B01249016048F68A
:10158000A0410024C0E901144FF4FA61C0E903143A
:1015900080218161FFF757FC00B1FEE74FF48050D6
:1015A000009069460848FFF7BBFC00B1FEE70494D1
:1015B00004A905480594FFF71EFC002800D0FEE7AB
:1015C00006B010BD00080040B0000020FEE77047E4
:1015D0000907090E002806DA00F00F0000F1E020EC
:1015E00080F8141D704700F1E02080F80014704767
:1015F000704700000148FFF7FFBA00001800002004
:1016000010B5406A0021C187C186FFF7F3FA10BD0B
:10161000704710B5FEF7A6FFBDE81040FFF7E5BB29
:1016200030B58FB001210804CDE9001000240294E8
:1016300002250491CDE907504FF4E0100990684667
:10164000FFF756F900B1FEE70F20CDE90A054FF488
:101650008060CDE90C400E9002210AA8FFF742F805
:1016600000B1FEE7FFF7E8F84FF47A71B0FBF1F054
:10167000FFF7A7FB0420FFF797FB00221146501E3F
:10168000FEF7FEFF0FB030BD0D48016841F00101CB
:10169000016041680B4A1140416001680A4A1140EB
:1016A0000160016821F480210160416821F4FE019C
:1016B00041604FF41F0181600449C0030860704716
:1016C000001002400000FFF8FFFFF6FE08ED00E00A
:1016D0000148FFF79FBC0000700000200148FFF7A1
:1016E00099BC0000B0000020F0B50268164B174C02
:1016F000174D4FF08047984205D0B84203D0A04222
:1017000001D0A84203D122F070064A6832439842C1
:1017100005D0B84203D0A04201D0A84203D122F4A0
:101720004074CA68224322F080044A69224302605E
:101730008A68C2620A688262984201D109690163BB
:1017400001214161F0BD0000002C01400004004077
:101750000008004010B5846842EA032224F47F4464
:101760000A432243826010BD826822F070020A435D
:1017700042F007018160704710B5036A046A24F0E3
:1017800001040462846924F0F00444EA021423F0A2
:101790000A020A438461026210BD10B5036A23F095
:1017A000100303628369046A23F4704343EA02323C
:1017B00024F0A00343EA01118261016210BD000020
:1017C0002DE9F04F2B4C89B04FF480712046FEF785
:1017D000B5FE029080212046FEF7B0FE82464021F1
:1017E0002046FEF7ABFE814620212046FEF7A6FEEE
:1017F000019010212046FEF7A1FE0090082120460E
:10180000FEF79CFE834602212046FEF797FE8046A7
:1018100001212046FEF792FE174F06460421384666
:10182000FEF78CFE054602213846FEF787FE044689
:1018300001213846FEF782FEDDE90137024605A8A0
:10184000089780E8080600982346CDE903B08DE8A4
:1018500060010A490A4800F069F90948FEF762FC8C
:1018600009B00749BDE8F04F82B2A1F14000FFF78F
:1018700086BD0000000C014000080140DC1F00088C
:101880003001002010B5406A0021C185C184FFF7F6
:1018900086FC10BD0168CA6822F49072CA600168B3
:1018A0004A6922F001024A61202180F83A1070470B
:1018B00010B590F83A10222901D0022010BD81689D
:1018C000B1F5805F11D00169002901681FD0496816
:1018D00001F07F03816A4A1C82620B70C18D491E30
:1018E0000904090CC18518D02BE00269816A002A1D
:1018F0000268526805D0D2B20A80816A491C8162AE
:10190000ECE7C2F308020A80816A891CF7E74A689B
:10191000816A4B1C83620A70E0E70168CA6822F0A2
:101920002002CA600168CA6822F48072CA60016835
:101930004A6922F001024A61202180F83A10FFF73B
:101940001DFD002010BD00002DE9F0410446006897
:101950000169E26821F44051114301612169A068E5
:101960000843616908432168CA6841F20C639A43DD
:101970000243CA6020684169A26921F440711143A1
:1019800041614C4920686425322688423CD1FEF7EB
:1019900069FF00EBC00101EB001061688900B0FB3A
:1019A000F1F7FEF75FFF00EBC00101EB001061688B
:1019B000B0468900B0FBF1F0B0FBF5F06FF0180114
:1019C000484307EB800106EB0110B0FBF5F000F097
:1019D000F006FEF747FF00EBC00101EB0010616865
:1019E0008900B0FBF1F0B0FBF5F006EB0016FEF756
:1019F00039FF00EBC00101EB001061688900B0FB0A
:101A0000F1F7FEF72FFF3BE0FEF71CFF00EBC001F4
:101A100001EB001061688900B0FBF1F7FEF712FFDF
:101A200000EBC00101EB00106168B0468900B0FB1B
:101A3000F1F0B0FBF5F06FF01801484307EB8001BF
:101A400006EB0110B0FBF5F000F0F006FEF7FAFE31
:101A500000EBC00101EB001061688900B0FBF1F000
:101A6000B0FBF5F006EB0016FEF7ECFE00EBC00154
:101A700001EB001061688900B0FBF1F7FEF7E2FEB0
:101A800000EBC00101EB001061688900B0FBF1F0D0
:101A9000B0FBF5F06FF01801484307EB800108EB4D
:101AA0000110B0FBF5F0216800F00F0030448860B1
:101AB000BDE8F0810038014090F83910212901D0AB
:101AC000022070478168B1F5805F016A0BD04A1C23
:101AD0000262026809785160C18C491E0904090C30
:101AE000C1840ED017E009880268C1F30801516073
:101AF00001690029016A02D0491C0162ECE7891CD6
:101B0000FBE70168CA6822F08002CA600068C16809
:101B100041F04001C1600020704700000148FFF71C
:101B20003FBB0000F0000020FEE700000FB4084BB0
:101B300010B504A902AA039800F01CF8044602A9F3
:101B4000002000F0C1F8204610BC5DF814FB000036
:101B5000C91C000802E008C8121F08C1002AFAD1F7
:101B600070477047002001E001C1121F002AFBD11D
:101B7000704700002DE9FF4F89B09B4604460025C1
:101B800006E025280BD05A460B999047641C6D1C23
:101B900020780028F5D10DB02846BDE8F08F002749
:101BA000B8460122474900E0074314F8013F203BB3
:101BB00002FA03F00842F7D120782E2819D114F840
:101BC000010F47F004072A280ED06FF02F0220786B
:101BD000A0F1300109290CD808EB880102EB410182
:101BE00000EB0108641CF2E70A98641C50F8048BAF
:101BF0000A9020780028CED0642808D0692806D022
:101C000075281ED05A460B9990476D1C58E00A99CA
:101C10004FF00A0901C90A91002802DA40422D2139
:101C200002E0390504D52B218DF82010012103E0B5
:101C3000F90704D02021F7E78A4608AE0DE000211D
:101C4000FAE70A994FF00A0901C90A91F7E74946EC
:101C5000FEF76FFA303106F8011D0028F7D1ADEB21
:101C6000060000F12009780701D44FF00108C845AB
:101C700002DDA8EB090000E000208046002706E016
:101C800008A85A46C05D0B9990476D1C7F1C5745AC
:101C9000F6DB04E030205A460B9990476D1CB8F1F2
:101CA0000001A8F10108F5DC05E016F8010B5A4621
:101CB0000B9990476D1CB9F10001A9F10109F4DC01
:101CC000641C65E7092801000A68531C0B6010704A
:101CD0007047000070B50C4E01213046FEF72EFC17
:101CE0000A4C002570B102213046FEF727FC48B1AE
:101CF00040210748FEF722FC002802D1A5700120F0
:101D0000607070BD657070BD00080140000000206B
:101D1000000C0140FEF72EFCFFF782FCFFF750FBA2
:101D2000FFF7DEFBA348A2490C2201604FF4E1312A
:101D3000416000218160C160C0E904128161C1611C
:101D4000FFF7B6FA00B1FEE7FFF714FCFFF7E8FB78
:101D500098484038FFF7D8F8FFF7BCFFDFF85892F3
:101D6000964C974D4FF400584FF4FA6764264FF4A1
:101D70007A7A4FF4807B41464846FEF7E4FB607870
:101D800000287DD0E078012809D1A07840B1012851
:101D900036D002285DD0032873D0042872D003E126
:101DA000FFF70EFD012220212846FEF7D0FB01227D
:101DB00010212846FEF7CBFB002202212846FEF721
:101DC000C6FB41F28830FEF735FA01220821284689
:101DD000FEF7BDFB42F21070FEF72CFA012211460D
:101DE0002846FEF7B4FBA0884FF00102B8424FF03E
:101DF000800104D32846FEF7AAFB01225946A0E041
:101E0000FFF7DEFCA0884FF00102B8424FF08001DE
:101E100004D32846FEF79BFB012259462846FEF7CD
:101E200096FB012220212846FEF791FB012210217A
:101E30002846FEF78CFB012208212846FEF787FB87
:101E4000012211462846FEF782FB5046FEF7F2F9C2
:101E500028E0FFF7B5FCA0884FF00102B8424FF030
:101E6000800104D32846FEF772FB0122594628461A
:101E7000FEF76DFB012220212846FEF768FB02E0F9
:101E800066E012E033E0012210212846FEF75FFBF6
:101E9000012208212846FEF75AFB0022012128468C
:101EA000FEF755FB012202214BE0FFF789FCA088D9
:101EB0004FF00102B8424FF0800104D32846FEF7EC
:101EC00046FB012259462846FEF741FB012220210C
:101ED0002846FEF73CFB012210212846FEF737FB7F
:101EE000012208212846FEF732FB012220E0FFF7FD
:101EF00067FCA0884FF00102B8424FF0800104D384
:101F00002846FEF724FB012259462846FEF71FFB10
:101F1000012220212846FEF71AFB01221021284623
:101F2000FEF715FB012208212846FEF710FB0022D0
:101F300002212846FEF70BFB5046FEF77BF90122F3
:101F400011462846FEF703FBFFF73AFCA6702BE08C
:101F5000FFF736FC002201212846FEF7F8FA00229E
:101F600002212846FEF7F3FA002208212846FEF750
:101F7000EEFA002210212846FEF7E9FA002280211D
:101F80002846FEF7E4FA002259462846FEF7DFFA13
:101F9000002240212846FEF7DAFA002220212846B6
:101FA000FEF7D5FAFFF70CFCC820FEF743F9E2E68E
:101FB00000380140F0000020001001400000002027
:101FC000000C0140000000000000000001020304BA
:101FD0000607080900000000010203047B224C539D
:101FE000223A222564222C224853223A22256422B6
:101FF0002C224253223A222564222C225031223AAA
:10200000222564222C225032223A222564222C22BC
:10201000526F6F74223A222564222C225661632269
:102020003A222564222C22436F6F6C6572223A2279
:102030002564222C225645223A222564222C22484D
:1020400031223A222564222C224832223A22256467
:10205000227D0A0074200008000000201800000003
:10206000541B00088C20000818000020E005000028
:10207000641B0008000100011600000001000000C0
:0C208000100000000000000000A24A0454
:04000005080000ED02
:00000001FF
