:020000040800F2
:10000000C807002001010008F31B0008E3190008DD
:10001000F11B0008CF020008D522000800000000F4
:10002000000000000000000000000000351C000877
:10003000D102000800000000151C0008371C000851
:100040001B0100081B0100081B0100081B01000820
:100050001B0100081B010008D3020008D902000898
:10006000DF0200081B0100081B0100081B0100083B
:100070001B0100081B0100081B0100081B010008F0
:100080001B0100081B0100081B0100081B010008E0
:100090001B0100081B0100081B0100081B010008D0
:1000A0001B0100081B0100081B0100081B010008C0
:1000B000F51C00081B010008011D00081B010008B9
:1000C0001B0100081B0100081B010008191C000887
:1000D0001B010008C92200081B0100081B010008C1
:1000E0001B0100081B0100081B010008DFF80CD0F1
:1000F00000F07AF800480047C9240008C80700202B
:100100000648804706480047FEE7FEE7FEE7FEE7B1
:10011000FEE7FEE7FEE7FEE7FEE7FEE7AD1C0008B0
:10012000ED000008421C10F8011B0029FBD1801AC9
:10013000704770B5064602F0E3F8046805460A22E7
:100140000021304600F018F82C6070BD30B50B4629
:10015000014600202022012409E021FA02F59D42F7
:1001600005D303FA02F5491B04FA02F52844151ECB
:10017000A2F10102F1DC30BD2DE9F04791460F46B6
:1001800080460446002614F8015B2DB100F03EF8CD
:100190000068405DC007F6D12B2D02D02D2D18D060
:1001A000641E4A463946204600F034F827B13968C3
:1001B000A14201D1C7F8008071054FF002040BD5B0
:1001C0004042002803DD02F09BF80460A007BDE870
:1001D000F08746F48066E4E70028F8DA02F090F849
:1001E00004606FF00040F2E7064C074D06E0E0685F
:1001F00040F0010394E8070098471034AC42F6D36E
:10020000FFF778FFB8290008D82900080048704790
:10021000FC2800082DE9F05F82460078002715468B
:100220008B460AF10104B946302801D09DB113E094
:1002300014F8010B0127782803D0582801D045B1C4
:100240000AE00DB1102D07D10027102514F8010B7D
:1002500002E0082500E00A250026B0460EE005FB76
:10026000080005FB06F1012701EB10461FFA80F894
:10027000B6F5803F00D3B94614F8010B294600F0CB
:1002800018F80028EBDABBF1000F05D00FB1641E9F
:1002900000E05446CBF80040B9F1000F06D002F060
:1002A0002FF802210160C81EBDE8F09F48EA064011
:1002B000FAE73A2800D2303820F02002412A01D350
:1002C000A2F13700884201D34FF0FF307047FEE7BC
:1002D0007047012000F0F6B8022000F0F3B80420C7
:1002E00000F0F0B810B590F821100024022903D0D6
:1002F0000421816301243DE001680A6822F00E02B6
:100300000A6001680A6822F001020A601A4A01685C
:10031000914201D1012121E0174A1432914201D1C9
:1003200010211BE0144A2832914201D1891515E0B1
:10033000114A3C32914201D189140FE00E4A5032E9
:10034000914202D14FF4803108E00B4A643291426D
:1003500002D14FF4801101E04FF08071064A083A53
:100360005160012180F82110002180F82010416B9C
:1003700001B18847204610BD0800024070B5044610
:1003800000F094F90546601C02D00448007804444B
:1003900000F08CF9401BA042FAD370BD1C00002075
:1003A0002DE9F041444C01460027E0780126434DF9
:1003B000012906D0022939D0042935D1012869D074
:1003C00076E0012874D10121284600F065F938B1A2
:1003D0000221284600F060F910B10420A0702770B7
:1003E0000121284600F058F928B10221284600F0E2
:1003F00053F900B926700121284600F04DF930B9B3
:100400000221284600F048F908B1A67027700121A2
:10041000284600F041F9002806D10221284600F0C4
:100420003BF9002800D12670BDE8F08101283FD1BA
:100430000221284600F030F938B90121284600F0A1
:100440002BF910B90220A07027700221284600F075
:1004500023F928B90121284600F01EF900B12670C1
:100460000221284600F018F938B10121284600F091
:1004700013F910B90320A07027700221284600F05C
:100480000BF90028D0D00121284600F005F90028FA
:10049000C9D1C9E70421284600F0FEF80100084848
:1004A00002D0002201E003E00122202100F0F9F84F
:1004B000BDE8F04101F010BD00000020000801403F
:1004C000000C0140044910B50A68024202D00860DD
:1004D000FFF766FF10BD0000140401402DE9F84F3E
:1004E000DFF890A100220AF1040B144601274FF017
:1004F0000F090BF1040E00BF0B6807FA04F52B403F
:10050000AB4274D1DFF870C14E68A6EB0C086645AB
:100510002BD00DDC032E34D005DC36B3012E19D0E0
:10052000022E2FD11BE0112E16D0122E2AD119E047
:10053000B8F5881F19D006DCB8F5803F15D0B8F59E
:10054000801F1FD111E0B8F5001F0ED0B8F5041FB1
:1005500018D10AE0CA6815E0CA68121D12E0CA681C
:1005600008320FE0CA680C320CE08A682AB1012A0E
:100570004FF0080203D0456104E0042202E0056167
:1005800000E00022FF2B01D8064601E000F104063E
:100590004FEA840501D9A5F12005D6F800C009FA73
:1005A00005F82CEA080C02FA05F54CEA050CC6F829
:1005B00000C04D68ED0057D5304DAE6946F00106DC
:1005C000AE61AD6924F0030605F0010500952C4DE0
:1005D00006EB050CDCF80850A6074FEA167809FA76
:1005E00008F6B543274EB04202D1002610E03BE0AA
:1005F000254EB04201D101260AE0244EB04201D17D
:10060000022605E0224EB04201D1032600E0042676
:1006100006FA08F62E43CCF808604D68DAF8006058
:10062000ED03554601D51E4300E09E432E604D6804
:10063000DBF80060AD035D4601D51E4300E09E433C
:100640002E604D68DEF80060ED02754601D51E4350
:1006500000E09E432E604D68AD020E4D2E6801D520
:100660001E4300E09E432E60641C102CFFF444AF38
:10067000BDE8F88F00040140000011100010024096
:100680000000014000080140000C01400010014042
:10069000001401400C0401408068084000D0012093
:1006A00070470AB1016170470904FBE7014880689F
:1006B000704700001C000020024881680278114445
:1006C000816070471C000020074810B5016841F0A8
:1006D00010010160032000F09DF8002000F006F8F2
:1006E00000F024F8002010BD0020024070B50D4D30
:1006F00004464FF47A712878B1FBF0F00A49096892
:10070000B1FBF0F000F007FC48B9102C07D2002232
:100710002146501E00F05EF800206C6070BD012084
:1007200070BD00001C00002028000020214808B5F2
:10073000816941F001018161816901F0010100914C
:10074000C16941F08051C161C06900F080500090E2
:10075000032000F05FF8002211466FF00B0000F05C
:1007600039F8002211466FF00A0000F033F8002239
:1007700011466FF0090000F02DF800221146501FBD
:1007800000F028F800221146101F00F023F8002284
:100790001146901E00F01EF800221146501E00F077
:1007A00019F80548416821F0E06141F000714160AD
:1007B00008BD0000001002400000014000F01F02D0
:1007C000012191404009800000F1E020C0F80011B3
:1007D00070470000F0B40E4B1B680C46C3F30223B5
:1007E000C3F10705042D00D90425191D072901D2DD
:1007F000002300E0DB1E012606FA05F1491E214018
:1008000099409E40761E16403143F0BC01F0F2B98B
:100810000CED00E0064900F0070208684FF6FF0300
:10082000184040EA0220034A104308607047000065
:100830000CED00E00000FA052DE9F047DFF83C81FF
:1008400005460E46D8F8000000F00700B0420CD272
:10085000D8F8001021F007013143C8F80010D8F88B
:10086000000000F00700B04263D12878444C8007B4
:1008700005D56068A96820F0F0000843606028781A
:10088000C00745D06868012816D02168022816D014
:10089000890700294DDA616821F003010143616095
:1008A000FFF704FF6968074641F2883001290FD03D
:1008B0000229814619D027E021688903E9E78901E7
:1008C000E7E700BFFFF7F2FEC11B494501D918E079
:1008D00081466068C0F381000128F3D118E000BFB1
:1008E000FFF7E4FEC11B49450BD86068C0F38100E7
:1008F0000228F5D10CE000BFFFF7D8FEC11B494527
:1009000002D90320BDE8F087606810F00C0FF3D126
:10091000D8F80010404601F00701B1420BD9016838
:1009200021F0070131430160006800F00700B04288
:1009300001D00120E6E72878400705D56068E9681E
:1009400020F4E060084360602878000706D56068FE
:10095000296920F4605040EAC100606000F03CF872
:100960006168084AC1F30311515CC8400649086038
:100970000020FFF7BBFE0020C4E70000002002407B
:10098000001002406028000828000020014800688C
:1009900070470000280000200448054900684968A5
:1009A000044AC1F30221515CC8407047280000206E
:1009B0000010024070280008044805490068496892
:1009C000044AC1F3C221515CC8407047280000208E
:1009D000001002407028000812A185B00FC98DE8F0
:1009E0000F0014A0144A006804905168134801F0E5
:1009F0000C03042B10D0082B0ED1C1F38343C90381
:100A00001DF803000AD5516804AAC1F34041515CA6
:100A10000A4A5043B0FBF1F005B07047084948431B
:100A2000FAE7000002030405060708090A0B0C0D8B
:100A30000E0F1010010200000010024000127A0098
:100A400000093D002DE9F84F04460078B94DC00774
:100A500048D06868C0F38100012807D06868C0F3F7
:100A60008100022809D16868C00306D52868800380
:100A700038D5606800286FD034E06068B0F5803FFA
:100A80000BD010B1B0F5A02F11D0286820F4803021
:100A90002860286820F4802002E0286840F4803034
:100AA0002860606888B1FFF701FE064609E0286803
:100AB00040F480202860F0E7FFF7F8FD801B6428F1
:100AC00075D828688003F7D50CE0FFF7EFFD0646E0
:100AD00005E000BFFFF7EAFD801B6428F0D8286816
:100AE0008003F7D42078944E80074FF001094FF02F
:100AF00000083BD5686810F00C0F07D06868C0F399
:100B00008100022809D16868C00306D428688007DC
:100B100014D5206901281FD110E02069B0B1C6F8B2
:100B20000090FFF7C3FD074605E000BFFFF7BEFDDD
:100B3000C01B0228C4D828688007F7D528686169D7
:100B400020F0F80040EAC10028600FE0C6F80080FD
:100B5000FFF7ACFD074606E0E9E000BFFFF7A6FDA2
:100B6000C01B022823D828688007F7D42078000704
:100B70002CD57248A169D9B1C0F80090FFF796FD55
:100B8000074604E0FFF792FDC01B02280FD8686AF1
:100B90008007F7D56A484FF4FA510068B0FBF1F0CE
:100BA000009000BF0098411E0091FAD20EE080E054
:100BB000C0F80080FFF77AFD074604E0FFF776FDF6
:100BC000C01B022875D8686A8007F7D420784007D0
:100BD00060D5E8690027C00008D4E86940F080507B
:100BE000E861E869012700F08050009055480168ED
:100BF000C90513D40168834641F480710160FFF791
:100C000055FD824606E000BFFFF750FDA0EB0A004D
:100C100064284ED8DBF80000C005F5D5E06801284F
:100C20000AD008B1052813D0286A20F001002862F4
:100C3000286A20F0040002E0286A40F001002862DF
:100C4000E06841F2883B98B1FFF730FD82460BE047
:100C5000286A40F004002862EEE700BFFFF726FD97
:100C6000A0EB0A0159455AD8286A8007F6D50CE04E
:100C7000FFF71CFD824605E0FFF718FDA0EB0A0117
:100C800059454CD8286A8007F6D41FB1E86920F08E
:100C90008050E861E06988B36968C1F38101022985
:100CA00045D00228C6F8608004D0FFF7FFFC044658
:100CB00038E034E0FFF7FAFC074604E0FFF7F6FC03
:100CC000C01B02282BD828688001F7D4206AB0F511
:100CD000803F05D16868A16820F40030084368604F
:100CE000D4E908010843696821F474110843686075
:100CF000C6F86090FFF7DAFC044606E015E000BF96
:100D0000FFF7D4FC001B022809D828688001F7D51A
:100D10000BE000BFFFF7CAFC001B022802D903202A
:100D2000BDE8F88F28688001F4D40020F8E701209E
:100D3000F6E70000001002400000424280044242F8
:100D400028000020007000407047000038B50446BD
:100D50000068426881684B0605D4CB0703D0530670
:100D600001D5216C04E08B0707D5130605D5616C0E
:100D700001B02046BDE83040084711F0600F3FD079
:100D800093063DD54B060AD594F85130032B34D049
:100D9000636D43F004036365C36883680093890649
:100DA00009D5616D41F001016165816800910168BB
:100DB00021F040010160606D002821D02068416869
:100DC00021F0E0014160012084F85100900718D023
:100DD0002068416821F0030141600C4DE06C18B1BE
:100DE0004563E06CFFF77EFAA06C002808D04563ED
:100DF000A06CBDE83840FFF775BAC1688068009004
:100E000038BD2046FFF7A0FF38BD0000251C0008B4
:100E100070B5040005D00025A56294F8510010B10A
:100E200004E0012070BD204600F034F8022084F870
:100E300051002068016821F040010160D4E90101FE
:100E40000843D4E903121143084361690843218B25
:100E500001F400710843E1690843216A0843A16A6B
:100E6000084321680860A069042101EA1040616A12
:100E70000843216848602168E06A08612068C16908
:100E800021F40061C1616565012084F851000020F2
:100E900070BD000010B50068154986B0884224D1A5
:100EA0001448816941F4805181618069124C00F4D9
:100EB00080500490A0200090022001900320039015
:100EC00069462046FFF70AFB00214020CDE90001DA
:100ED000029169462046FFF701FB002211462320BC
:100EE000FFF778FC2320FFF769FC06B010BD000077
:100EF0000030014000100240000801404FF0E021A6
:100F00000428086903D020F004000861704740F00D
:100F10000400FAE7704710B5401EB0F1807F01D39E
:100F2000012010BD4FF0E02460610F21601700F038
:100F300061FE0020A06107202061002010BD10B5D7
:100F4000FFF7E8FF10BD7047704730B590F83C20C0
:100F5000012A20D0012280F83C20022380F83D3075
:100F600003685C6824F070045C6003685C680D686A
:100F70002C435C6003689C6824F080049C600368D8
:100F80009C6849680C439C6080F83D20002180F8F3
:100F90003C10084630BD022030BD10B5040003D01F
:100FA00094F83D0010B107E0012010BD002084F846
:100FB0003C00204600F00CF8022084F83D00211D82
:100FC000206800F0A3FE012084F83D00002010BD41
:100FD00000B501681D4885B0B1F1804F14D01C4A9E
:100FE00091420FD1C16941F00401C161C069002281
:100FF00000F00400049011461E20FFF7EBFB1E20BA
:10100000FFF7DCFB05B000BDC16941F00101C16122
:10101000C069694600F0010004904FF40040009060
:101020000020019002900B48FFF758FA0A484168E7
:1010300021F4407141F0E06141F48071416000228F
:1010400011461C20FFF7C6FB1C20D9E70010024008
:101050000008004000080140000001400168CA6823
:1010600042F00102CA600068016841F001010160BC
:101070000020704770B5044690F83C00012817D056
:10108000012584F83C50022084F83D0020688268E5
:1010900022F0770222F47F4282600868502837D01D
:1010A0000DDC202859D005DC88B3102841D151E04F
:1010B000022070BD302853D040283AD13FE060284C
:1010C0002ED070280BD0B0F5805F03D0B0F5005F54
:1010D0002FD110E02068816821F0070115E0CB686E
:1010E000D1E90121206800F047FE2168886840F0BE
:1010F000770088601DE0CB68D1E90121206800F00D
:101100003BFE2068816841F48041816011E01EE06F
:10111000CA684968206800F041FE5021206806E056
:10112000CA684968206800F04AFE6021206800F023
:101130002DFE84F83D50002084F83C0070BDCA6844
:101140004968206800F02AFE40212068EFE700216E
:101150002068ECE710212068E9E720212068E6E715
:1011600030212068E3E7704770B5044600680169E4
:101170004FF00005C943890715D4C168C9438907E1
:1011800011D4E91E01610120207720688069800761
:10119000204602D0FFF7E7FF04E000F098F8204671
:1011A00000F096F8257720680169C943490717D4EC
:1011B000C168C943490713D46FF0040101610220DB
:1011C00020772068806910F4407F204602D0FFF726
:1011D000CAFF04E000F07BF8204600F079F825779C
:1011E00020680169C943090716D4C168C9430907C2
:1011F00012D46FF008010161042020772068C069D3
:101200008007204602D0FFF7AEFF04E000F05FF851
:10121000204600F05DF8257720680169C943C906BA
:1012200017D4C168C943C90613D46FF01001016116
:10123000082020772068C06910F4407F204602D043
:10124000FFF791FF04E000F042F8204600F040F87C
:10125000257720680169C943C90708D1C168C94316
:10126000C90704D1891E0161204600F033F82068C7
:101270000169C943090609D4C168C943090605D4EF
:101280006FF0800101612046FFF75DFE2068016973
:10129000C943490609D4C168C943490605D46FF05A
:1012A00040010161204600F023F820680169C9432C
:1012B00089060BD4C168C943890607D46FF02001A1
:1012C00001612046BDE87040FFF73EBE70BD70472B
:1012D0007047000000680449884203D10349088B25
:1012E000401C0883704700000008004000000020F8
:1012F0007047704770B5026804461068D16853693A
:1013000010F00F0F50D003F0010501F49076354333
:101310005DD0C20705D0CA0503D5E26B42F00102D9
:10132000E263420705D5DA0703D0E26B42F002021E
:10133000E263820705D5DA0703D0E26B42F00402CC
:10134000E263020705D5DA0703D0E26B42F0080238
:10135000E263E26B002A33D0800604D5880602D50A
:10136000204600F049FE20684069E16BC0F3801020
:10137000090700D428B3204600F030FE20684169F8
:1013800049061AD5416921F040014161606BA0B165
:101390001B494163606BFEF7A5FF002810D0606B0E
:1013A000416BBDE870400847830610D58B060ED50B
:1013B0002046BDE8704000F01FBE2046FFF799FFB1
:1013C00070BD2046FFF795FF0020E06370BD030667
:1013D00006D50B0604D52046BDE8704000F010BFCE
:1013E0004006F3D54806F1D5D168204621F04001EA
:1013F000D160202184F8391000F0F2FA70BD0000AD
:10140000CD1F000870B5040004D094F83900002501
:1014100010B106E0012070BD84F83850204600F07D
:1014200023F8242084F839002068C16821F4005191
:10143000C160204600F02CFE2068016921F4904133
:1014400001612068416921F02A0141612068C16879
:1014500041F40051C160E563202084F8390084F82C
:101460003A00002070BD000010B50068154986B034
:10147000884225D11448816941F4804181618069A5
:10148000124C00F4804004904FF400700090022051
:1014900001900320039069462046FFF71FF80021C2
:1014A0002015CDE90001029169462046FFF716F8A4
:1014B000002211462520FFF78DF92520FFF77EF940
:1014C00006B010BD00380140001002400008014085
:1014D00090F83A30202B22D1F9B1F2B190F838309F
:1014E000012B1CD081628285C2850021C16322222A
:1014F00080F83A2080F838100168CA6842F4807297
:10150000CA6001684A6942F001024A610068C16824
:1015100041F02001C1600020704701207047022087
:10152000704700002DE9F0410068EA4988427DD10A
:10153000E94CEA4D0027A07928B900216F54491CD5
:10154000C9B2C829FAD3E4494FF001081A31097821
:101550000A2915D02954401CA0712878402801D1AF
:1015600000F0BAFC28782E280FD023280DD024288C
:101570000BD0252809D05E2807D0A77167719EE19E
:10158000E071A77184F8058002E060790128F6D146
:101590002878D34E2E287DD16878312802D0302883
:1015A00003D004E084F8048000E02771A770E87895
:1015B000312802D0302806D081E1E07800B9A77048
:1015C00084F803807BE1E77020790128D7D168791E
:1015D000312804D1012211463046FFF762F86879BC
:1015E000302804D1002201213046FFF75AF8E8796B
:1015F000312804D1012202213046FFF752F8E87960
:10160000302804D1002202213046FFF74AF8687AD8
:101610004FF48077312804D1012239463046FFF754
:1016200040F8687A302806D1002200E04FE13946C0
:101630003046FFF736F8E87A312804D101228021BC
:101640003046FFF72EF8E87A302804D100228021B6
:101650003046FFF726F8687B312804D1012240216B
:101660003046FFF71EF8687B302804D10022402165
:101670003046FFF716F8E87B312804D101222021FB
:101680003046FFF70EF8E87B302806D100222021F3
:10169000304600E023E0FFF704F8687C312804D1ED
:1016A000012210213046FEF7FCFF687C302804D16F
:1016B000002210213046FEF7F4FFE87C312804D1E7
:1016C000012208213046FEF7ECFFE87C302804D1E7
:1016D000002208213046FEF7E4FF3220A07028786F
:1016E0004FF4FA67232845D17C4A0020E179C832BB
:1016F00003E02B185B781354401C8842F9DB7748D1
:10170000C830FEF716FD80B22081E178012931D181
:10171000401EB8420DD2E0896189884209D3012276
:1017200010213046FEF7BDFF002208213046FEF7AB
:10173000B8FF2089B8420DD9E0896189884209D370
:10174000012210213046FEF7ACFF0122082130466D
:10175000FEF7A7FF208918B1E0896189884209D284
:10176000002210213046FEF79CFF0022082130465F
:10177000FEF797FF287825280FD1584A0020E179F5
:10178000DC3203E02B185B781354401C8842F9DBF1
:101790005248DC30FEF7CDFCA08128785E2845D188
:1017A0004E4A0020E179E63203E02B185B781354AF
:1017B000401C8842F9DB4948E630FEF7BAFC80B2AB
:1017C000E081E178012931D12189491EB9420CD249
:1017D0006189884209D3012210213046FEF761FF5A
:1017E000002208213046FEF75CFF2089B8420DD95F
:1017F000E089618988420BD3012210213046FEF72F
:1018000050FF012208213046FEF74BFF208918B116
:10181000E0896189884209D2002210213046FEF712
:1018200040FF002208213046FEF73BFF287824289D
:1018300045D12A4A0020E179D23203E02B185B78A7
:101840001354401C8842F9DB2448D230FEF771FC67
:1018500080B26081E178012931D12189491EB942E4
:101860000CD2E189814209D3012210213046FEF7D2
:1018700018FF002208213046FEF713FF2089B842E6
:101880000DD9E089618988420BD3012210213046AD
:10189000FEF707FF012208213046FEF702FF2089EC
:1018A00018B1E0896189884209D2002210213046AE
:1018B000FEF7F7FE002208213046FEF7F2FEBDE8F3
:1018C000F041054901221A310648FFF701BEBDE883
:1018D000F08100000038014000000020D802002004
:1018E000000C0140080100202DE9F843044690F85F
:1018F00039001F4616460D46202850D1A5B19EB18D
:1019000094F8380001284AD0012084F838004FF0BC
:101910000008C4F83C80212084F83900FEF7C6FE98
:10192000A6848146E68426E00120BDE8F883E08CA9
:10193000401EE084A0684B46B0F5805F4FF0000287
:101940004FF080012046009703D000F08AFCE8B9F0
:101950000DE000F086FCC8B928882168C0F30800B3
:101960004860206908B16D1C05E0AD1C03E02168EA
:1019700015F8010B4860E08C0028D8D14B460022B6
:1019800040212046009700F06CFC08B10320CCE712
:10199000202084F8390084F838800020C5E7022030
:1019A000C3E790F83930202B18D1A9B1A2B190F833
:1019B0003830012B12D001628284C2840021C163BD
:1019C000212280F8392080F838100068C16841F081
:1019D0008001C160002070470120704702207047DD
:1019E0007047FEE72DE9F043414885B0816941F039
:1019F00010018161816901F010010491816941F058
:101A000020018161816901F020010491816941F027
:101A100004018161816901F004010491816941F04F
:101A2000080181618069334F00F008004FF40054D1
:101A30000490002221463846FEF733FEDFF8B880D6
:101A4000002210214046FEF72CFEDFF8B09040F255
:101A5000FB16002231464846FEF723FE009401247F
:101A60000225CDE90145694638460395FEF736FD66
:101A70004FF44040009000200190029069463846A3
:101A8000FEF72CFD072000901D48CDE901046946B2
:101A90004046FEF723FD1020CDE90004694640468C
:101AA000CDE90245FEF71AFDCDE9006469464846D6
:101AB000CDE90245FEF712FD002211460620FEF791
:101AC00089FE0620FEF77AFE002211460720FEF767
:101AD00081FE0720FEF772FE002211460820FEF765
:101AE00079FE0820FEF76AFE05B0BDE8F08300002D
:101AF000001002400010014000080140000C0140AD
:101B0000000031100E4810B50C4901604FF482718D
:101B10004160002181600122C160C0E904125202CB
:101B200082613822C0E90721416281620A21C162D3
:101B3000FFF76EF9002800D0FEE710BD003001402D
:101B40003000002010B5134886B04FF080410024CB
:101B5000C0E900146421C0E9024104618461FFF717
:101B60001CFA00B1FEE74FF40050CDE900040294E6
:101B7000694608480394FFF77DFA00B1FEE7049434
:101B800004A904480594FFF7E0F9002800D0FEE717
:101B900006B010BD8800002010B5144886B0124968
:101BA000016048F6A0410024C0E901144FF4FA6135
:101BB000C0E9031480218161FFF7EFF900B1FEE76E
:101BC0004FF48050009069460848FFF753FA00B17F
:101BD000FEE7049404A905480594FFF7B6F9002828
:101BE00000D0FEE706B010BD00080040C80000208D
:101BF000FEE770470907090E002806DA00F00F001B
:101C000000F1E02080F8141D704700F1E02080F81A
:101C100000147047704700000148FFF797B80000B4
:101C20003000002010B5406A0021C187C186FFF74F
:101C30008BF810BD704710B5FEF73EFDBDE81040B3
:101C4000FFF77DB930B58FB001210804CDE9001050
:101C50000024029402250491CDE907504FF4E010CE
:101C600009906846FEF7EEFE00B1FEE70F20CDE9D1
:101C70000A054FF48060CDE90C400E9002210AA8BD
:101C8000FEF7DAFD00B1FEE7FEF780FE4FF47A7151
:101C9000B0FBF1F0FFF73FF90420FFF72FF9002226
:101CA0001146501EFEF796FD0FB030BD0D4801687D
:101CB00041F00101016041680B4A11404160016837
:101CC0000A4A11400160016821F4802101604168E5
:101CD00021F4FE0141604FF41F0181600449C003FB
:101CE00008607047001002400000FFF8FFFFF6FE9A
:101CF00008ED00E00148FFF737BA00008800002037
:101D00000148FFF731BA0000C8000020F0B50268B2
:101D1000164B174C174D4FF08047984205D0B842EC
:101D200003D0A04201D0A84203D122F070064A6835
:101D30003243984205D0B84203D0A04201D0A84215
:101D400003D122F44074CA68224322F080044A6915
:101D5000224302608A68C2620A688262984201D1A4
:101D60000969016301214161F0BD0000002C0140BF
:101D7000000400400008004010B5846842EA0322D5
:101D800024F47F440A432243826010BD826822F01B
:101D900070020A4342F007018160704710B5036A80
:101DA000046A24F001040462846924F0F00444EA23
:101DB000021423F00A020A438461026210BD10B5C6
:101DC000036A23F0100303628369046A23F47043F7
:101DD00043EA023224F0A00343EA01118261016266
:101DE00010BD00002DE9F047354F88B0022138467C
:101DF000FEF752FC814601213846FEF74DFC314C7E
:101E0000064604212046FEF747FC80460221204674
:101E1000FEF742FC054601212046FEF73DFC2A4C18
:101E20000146E089A389CDE905308DE82201CDE99D
:101E30000369E37822792549254800F04DFA2448C2
:101E4000FEF770F9224982B2A1F14000FFF7A9FD27
:101E50001420FEF793FA08213846FEF71DFC82464F
:101E600010213846FEF718FC814620213846FEF73F
:101E700013FC804640213846FEF70EFC06468021C2
:101E80003846FEF709FC0546B9153846FEF704FC4E
:101E900063892489CDE904438DE8400702462B4637
:101EA0000C490B4800F018FA0948FEF73BF908B056
:101EB0000749BDE8F04782B2A1F14000FFF771BDCC
:101EC000000C01400008014000000020002900082B
:101ED00048010020642900082DE9F047354F88B0FB
:101EE00002213846FEF7D8FB814601213846FEF72D
:101EF000D3FB314C064604212046FEF7CDFB80463D
:101F000002212046FEF7C8FB054601212046FEF7C8
:101F1000C3FB2A4C0146E089A389CDE905308DE851
:101F20002201CDE90369E37822792549254800F0AB
:101F3000D3F92448FEF7F6F8224982B21423A1F51A
:101F40008470FFF7D1FC08213846FEF7A5FB8246D6
:101F500010213846FEF7A0FB814620213846FEF7C7
:101F60009BFB804640213846FEF796FB06468021C3
:101F70003846FEF791FB0546B9153846FEF78CFB4F
:101F800063892489CDE904438DE8400702462B4646
:101F90000D490C4800F0A0F90A48FEF7C3F808B054
:101FA0000849BDE8F04782B21423A1F58470FFF719
:101FB0009BBC0000000C0140000801400000002014
:101FC00000290008100200206429000810B5406AAA
:101FD0000021C185C184FFF78CF910BD0168CA6872
:101FE00022F49072CA6001684A6922F001024A61D3
:101FF000202180F83A10704710B590F83A10222945
:1020000001D0022010BD8168B1F5805F11D0016957
:10201000002901681FD0496801F07F03816A4A1CCA
:1020200082620B70C18D491E0904090CC18518D04C
:102030002BE00269816A002A0268526805D0D2B298
:102040000A80816A491C8162ECE7C2F308020A80B7
:10205000816A891CF7E74A68816A4B1C83620A70AF
:10206000E0E70168CA6822F02002CA600168CA6815
:1020700022F48072CA6001684A6922F001024A6152
:10208000202180F83A10FFF74DFA002010BD000023
:102090002DE9F041044600680169E26821F44051ED
:1020A000114301612169A0680843616908432168FF
:1020B000CA6841F20C639A430243CA6020684169CE
:1020C000A26921F44071114341614C4920686425A3
:1020D000322688423CD1FEF76FFC00EBC00101EBD9
:1020E000001061688900B0FBF1F7FEF765FC00EBBA
:1020F000C00101EB00106168B0468900B0FBF1F04F
:10210000B0FBF5F06FF01801484307EB800106EBD8
:102110000110B0FBF5F000F0F006FEF74DFC00EB0F
:10212000C00101EB001061688900B0FBF1F0B0FB69
:10213000F5F006EB0016FEF73FFC00EBC00101EBEB
:10214000001061688900B0FBF1F7FEF735FC3BE059
:10215000FEF722FC00EBC00101EB00106168890072
:10216000B0FBF1F7FEF718FC00EBC00101EB00102B
:102170006168B0468900B0FBF1F0B0FBF5F06FF09C
:102180001801484307EB800106EB0110B0FBF5F0A6
:1021900000F0F006FEF700FC00EBC00101EB0010C0
:1021A00061688900B0FBF1F0B0FBF5F006EB0016BA
:1021B000FEF7F2FB00EBC00101EB00106168890043
:1021C000B0FBF1F7FEF7E8FB00EBC00101EB0010FC
:1021D00061688900B0FBF1F0B0FBF5F06FF0180119
:1021E000484307EB800108EB0110B0FBF5F02168D4
:1021F00000F00F0030448860BDE8F08100380140F5
:1022000090F83910212901D0022070478168B1F57A
:10221000805F016A0BD04A1C026202680978516033
:10222000C18C491E0904090CC1840ED017E009882D
:102230000268C1F30801516001690029016A02D0F6
:10224000491C0162ECE7891CFBE70168CA6822F0BF
:102250008002CA600068C16841F04001C16000208E
:1022600070472DE9F041984617460E460446069DF4
:102270001DE0681C1BD02DB1FEF718FAA0EB08007A
:10228000A84214D92068C16821F4D071C1602068C7
:10229000416921F001014161202084F8390084F86E
:1022A0003A00002084F838000320BDE8F08120685F
:1022B000006836EA000004D00020B842D9D00020DF
:1022C000F3E70120F9E700000148FFF713B8000029
:1022D00008010020FEE700000FB4084B10B504A968
:1022E00002AA039800F020F8044602A9002000F09A
:1022F000C5F8204610BC5DF814FB00007D240008E2
:10230000004870472C00002002E008C8121F08C1D6
:10231000002AFAD170477047002001E001C1121F66
:10232000002AFBD1704700002DE9FF4F89B09B4682
:102330000446002506E025280BD05A460B99904705
:10234000641C6D1C20780028F5D10DB02846BDE82E
:10235000F08F0027B8460122474900E0074314F8F0
:10236000013F203B02FA03F00842F7D120782E28E3
:1023700019D114F8010F47F004072A280ED06FF086
:102380002F022078A0F1300109290CD808EB880130
:1023900002EB410100EB0108641CF2E70A98641C9F
:1023A00050F8048B0A9020780028CED0642808D0FA
:1023B000692806D075281ED05A460B9990476D1C87
:1023C00058E00A994FF00A0901C90A91002802DA77
:1023D00040422D2102E0390504D52B218DF8201033
:1023E000012103E0F90704D02021F7E78A4608AE6F
:1023F0000DE00021FAE70A994FF00A0901C90A9194
:10240000F7E74946FDF7A2FE303106F8011D002826
:10241000F7D1ADEB060000F12009780701D44FF0A9
:102420000108C84502DDA8EB090000E00020804655
:10243000002706E008A85A46C05D0B9990476D1C1E
:102440007F1C5745F6DB04E030205A460B99904735
:102450006D1CB8F10001A8F10108F5DC05E016F8E3
:10246000010B5A460B9990476D1CB9F10001A9F177
:102470000109F4DC641C65E7092801000A68531CA3
:102480000B6010707047000070B50C4E0121304693
:10249000FEF702F90A4C002570B102213046FEF722
:1024A000FBF848B120210748FEF7F6F8002802D1D2
:1024B000A5700120607070BD657070BD000801409E
:1024C00000000020000C0140FEF7FEF8FFF7BAFB09
:1024D000FFF788FAFFF716FBDD48DC490C220160A4
:1024E0004FF4E131416000218160C160C0E9041214
:1024F0008161C161FEF786FF00B1FEE7FFF74CFB8B
:10250000FFF720FBD2484038FEF7A8FDFFF7BCFFDD
:10251000FFF768FC0122CF49CD48FEF7D9FFCD4C2B
:10252000DFF834B3CD4D642640F2CF774FF47A799B
:102530004FF4FA684FF4005A1A3C2079012853D01E
:10254000A078642830D0012251465846FEF7A9F8F9
:10255000002201212846FEF7A4F800220221284685
:10256000FEF79FF800224FF480712846FEF799F895
:10257000002280212846FEF794F8002210212846E8
:10258000FEF78FF8002208212846FEF78AF800227D
:1025900020212846FEF785F8002240212846FEF734
:1025A00080F8FFF71FFCA670218A2089814202D0A3
:1025B0002082FFF717FC618A6089814202D0608225
:1025C000FFF710FCA18AA089814202D0A082FFF708
:1025D00009FCE18AE089814202D0E082FFF702FC37
:1025E000C820FDF7CBFEA8E7002251465846FEF76B
:1025F00058F8607800287AD0E0780128A07802D0D6
:10260000322875D01EE140B1012845D0022873D090
:1026100003286FD004286ED014E1012240212846FF
:10262000FEF73FF8012280212846FEF73AF8002203
:1026300002212846FEF735F8FFF7D4FB41F2883037
:10264000FDF79CFE012211022846FEF72AF8FFF74B
:10265000C9FB42F21070FDF791FE01221146284697
:10266000FEF71FF82089401EB8420DD2E08961892B
:10267000884209D3012210212846FEF712F80022D1
:1026800008212846FEF70DF82089404570D9E089D9
:102690006189884262D26BE020894FF00102404597
:1026A0004FF01001284603D2FDF7FBFF002202E0A5
:1026B000FDF7F7FF012208212846FDF7F2FF01226E
:1026C00040212846FDF7EDFF012280212846FDF735
:1026D000E8FF012211022846FDF7E3FF012211461F
:1026E0002846FDF7DEFF4846FDF748FE18E07CE08F
:1026F0004CE001E04EE05EE0012240212846FDF77B
:10270000D0FF012280212846FDF7CBFF01221102D4
:102710002846FDF7C6FF002201212846FDF7C1FF2C
:10272000012202212846FDF7BCFF2089401EB84245
:102730000DD2E0896189884209D3012210212846FF
:10274000FDF7AFFF002208212846FDF7AAFF2089E8
:1027500040450DD9E089618988420BD301221021BF
:102760002846FDF79EFF012208212846FDF799FF24
:10277000208918B1E0896189884207D2002210219E
:102780002846FDF78EFF0022082157E0FFF72AFBBD
:10279000A67057E0012240212846FDF782FF012262
:1027A00080212846FDF77DFF012211022846FDF712
:1027B00078FF01220FE0012240212846FDF771FF3A
:1027C000012280212846FDF76CFF012211022846D4
:1027D000FDF767FF002202212846FDF762FF484609
:1027E000FDF7CCFD012211469CE7A078642829D092
:1027F000002201212846FDF754FF0022022128462D
:10280000FDF74FFF00224FF480712846FDF749FF86
:10281000002280212846FDF744FF0022102128468F
:10282000FDF73FFF002208212846FDF73AFF00226E
:1028300020212846FDF735FF002240212846FDF7DC
:1028400030FFA3E7C820FDF799FDADE60038014051
:10285000080100201A00002000100140000C014077
:102860000000000000000000010203040607080940
:10287000000000000102030400404040404040408E
:102880004040414141414140404040404040404043
:1028900040404040404040404005020202020202E7
:1028A0000202020202020202022020202020202036
:1028B000202020020202020202029090909090904A
:1028C0001010101010101010101010101010101008
:1028D000101010100202020202028888888888887C
:1028E0000808080808080808080808080808080868
:1028F00008080808020202024000000079280008C7
:102900007B2273223A222564222C226D223A222530
:1029100064222C224C53223A222564222C22485332
:10292000223A222564222C224253223A2225642272
:102930002C225031223A222564222C225032223A73
:10294000222564222C227072657373223A22256438
:10295000222C2273657454656D70223A22256422FC
:102960007D0A00007B2252223A222564222C225624
:10297000223A222564222C2243223A222564222C48
:10298000225645223A222564222C224831223A221C
:102990002564222C224832223A222564222C2266E7
:1029A0006C6F77223A222564222C2274656D702286
:1029B0003A222564227D0A00D82900080000002060
:1029C0003000000008230008082A0008300000201A
:1029D0009807000018230008000100000000000014
:1029E00000000000000000000000000000000000E7
:1029F00000000000010000001000000000000000C6
:082A000000A24A0400000000DE
:04000005080000ED02
:00000001FF
